:03000000020036C5
:0C003600787FE4F6D8FD7581300200569A
:03004300020600B2
:03005300020600A2
:100600000208590002089F000208890002087100D0
:10061000020735000205BE0002004200020052003F
:100620000204FF000205FF000209000002090100A8
:100630000209020002090300020904000209050080
:100640000209060002005200020907000209080020
:100650000209090002090A0002090B0002090C0044
:1006600002090D0002005200020052000200520076
:1006700002090E0002090F00020910000209110010
:1006800002091200020913000209140002091500F0
:1006900002091600020917000209180002091900D0
:1006A00002091A0002091B0002091C0002091D00B0
:0806B00002091E0002091F00EF
:100500001201000200000040B404041000000102C7
:1005100000010A06000200000040010009023C0040
:1005200001010080640904000006FF0000000705C7
:10053000020200020007050402000200070586020D
:1005400000020007058802000200070501024000C2
:10055000000705810240000009023C000101008003
:10056000640904000006FF000000070502024000C5
:10057000000705040240000007058602400000074E
:1005800005880240000007050102400000070581C0
:1005900002400000040309041003430079007000C6
:1005A0007200650073007300140341007000650061
:0E05B00078002D0031003100300030000000D6
:10083900751EFF90E605E054FDF0D20075B2FF90F9
:0F084900E600E054E74410F090E601E04440F090
:01085800227D
:0100320022AB
:02005000D322B9
:0208F600D3220B
:0208F800D32209
:0804F70090E6BAE0F530D322D3
:1008CA0090E740E530F0E490E68AF090E68B04F099
:0208DA00D32227
:0808EE0090E6BAE0F52FD322D9
:1008DC0090E740E52FF0E490E68AF090E68B04F088
:0208EC00D32215
:0208FA00D32207
:0208FC00D32205
:0208FE00D32203
:1007970090E6B9E02423701F75B2FF75804C90E78F
:1007A7004074DDF0E490E68AF090E68B04F090E682
:0B07B700A0E04480F08002D322C322A7
:1007ED0090E74074A1F0E490E68AF090E68B7402F5
:1007FD00F07F647E001206B890E741E0F5B190E617
:07080D00A0E04480F0D322BB
:10085900C0E0C083C082D2015391EF90E65D74017C
:08086900F0D082D083D0E03210
:10088900C0E0C083C0825391EF90E65D7404F0D05C
:0608990082D083D0E032A2
:10089F00C0E0C083C0825391EF90E65D7402F0D048
:0608AF0082D083D0E0328C
:10073500C0E0C083C082852925852A268526828535
:100745002583A37402F085212785222885288285A3
:100755002783A37407F05391EF90E65D7410F0D0F2
:0607650082D083D0E032D7
:10087100C0E0C083C082D2035391EF90E65D74085B
:08088100F0D082D083D0E032F8
:1005BE00C0E0C083C08290E680E030E72085212530
:1005CE00852226852682852583A37402F085292718
:1005DE00852A28852882852783A37407F05391EFF7
:0D05EE0090E65D7420F0D082D083D0E03222
:01004200328B
:01005200327B
:0104FF0032CA
:0105FF0032C9
:0109000032C4
:0109010032C3
:0109020032C2
:0109030032C1
:0109040032C0
:0109050032BF
:0109060032BE
:0109070032BD
:0109080032BC
:0109090032BB
:01090A0032BA
:01090B0032B9
:01090C0032B8
:01090D0032B7
:01090E0032B6
:01090F0032B5
:0109100032B4
:0109110032B3
:0109120032B2
:0109130032B1
:0109140032B0
:0109150032AF
:0109160032AE
:0109170032AD
:0109180032AC
:0109190032AB
:01091A0032AA
:01091B0032A9
:01091C0032A8
:01091D0032A7
:01091E0032A6
:01091F0032A5
:0A0046000001020203030404050593
:10005600E4F513F512F511F510C203C200C202C28F
:10006600011208397E057F008E238F24752B0575B6
:100076002C1275210575221C752905752A58752DB2
:1000860005752E94EE54C070030201577514007561
:1000960015808E168F17C374BC9FFF74059ECF24E0
:1000A60002CF3400FEE48F0F8E0EF50DF50CF50B26
:1000B600F50AF509F508AF0FAE0EAD0DAC0CAB0B9E
:1000C600AA0AA909A808C31206FE5033E517250B8C
:1000D600F582E516350AF583E0FFE515250BF58271
:1000E600E514350AF583EFF0E50B2401F50BE4354D
:1000F6000AF50AE43509F509E43508F50880B785F7
:10010600142385152474002480FF740534FFFEC370
:10011600E52C9FF52CE52B9EF52BC3E5269FF526B2
:10012600E5259EF525C3E5289FF528E5279EF527B5
:10013600C3E5229FF522E5219EF521C3E52A9FF519
:100146002AE5299EF529C3E52E9FF52EE52D9EF578
:100156002DD2E843D82090E668E04409F090E65CAA
:10016600E0443DF0D2AF90E680E020E105D20412F3
:10017600000390E680E054F7F0538EF8C2031200B5
:10018600323001051202CBC2013003291200505051
:1001960024C20312081420001690E682E030E70419
:1001A600E020E1EF90E682E030E604E020E0E412B1
:1001B600076B1208F6E4F51BF51AF519F518E47F36
:1001C60012FEFDFCAB1BAA1AA919A818D31206FE2B
:1001D6005066E4751301F512F511F510E47F05FE7E
:1001E600FDFCAB13AA12A911A810C31206FE5031CA
:1001F6007580FFAE1AAF1B1206B8E4F580C3741201
:10020600951BFFE4951AFE1206B8E5132401F513B3
:10021600E43512F512E43511F511E43510F51080C8
:10022600BBE51B2401F51BE4351AF51AE43519F56F
:1002360019E43518F51880867FE87E031206B8E4BF
:10024600F51BF51AF519F518E47F12FEFDFCAB1B3C
:10025600AA1AA919A818D31206FE4003020184E4BB
:10026600751301F512F511F510E47F05FEFDFCABE3
:1002760013AA12A911A810C31206FE5031E4F58084
:10028600AE1AAF1B1206B87580FFC37412951BFF1A
:10029600E4951AFE1206B8E5132401F513E43512A7
:1002A600F512E43511F511E43510F51080BBE51BA8
:1002B6002401F51BE4351AF51AE43519F519E43568
:0502C60018F51880830B
:1008B50090E60AE054F0600B90E509E030E402D3DD
:0508C50022C322D32232
:1002CB0090E6B9E012070F037A0003F701047A03F3
:1002DB0002F106037408036E0903620A03680B0438
:1002EB00DEA1000004E31208F840030204EF90E6DD
:1002FB00BBE024FE602714603824FD6011146027D6
:10030B0024067050E52390E6B3F0E524803C1208F8
:10031B00B5503EE52B90E6B3F0E52C802DE525900E
:10032B00E6B3F0E5268023E52790E6B3F0E52880D9
:10033B001990E6BAE0FF1207C2AA06A9077B01EAE9
:10034B00494B600DEE90E6B3F0EF90E6B4F002048B
:10035B00EF0204D90204D91208DC0204EF1208EEF2
:10036B000204EF1204F70204EF1208CA0204EF12A0
:10037B0008FA40030204EF90E6B8E0247F601514FE
:10038B00601924027063A200E43325E0FFA202E4AB
:10039B00334F8041E490E740F0803F90E6BCE0545F
:1003AB007EFF7E00E0D394807C0040047D018002C0
:1003BB007D00EC4EFEED4F2446F58274003EF58336
:1003CB00E493FF3395E0FEEF24A1FFEE34E68F823A
:1003DB00F583E0540190E740F0E4A3F090E68AF057
:1003EB0090E68B7402F00204EF0204D91208FC4071
:1003FB00030204EF90E6B8E024FE601624026003CB
:10040B000204EF90E6BAE0B40105C2000204EF0269
:10041B0004D990E6BAE0705590E6BCE0547EFF7EBE
:10042B0000E0D394807C0040047D0180027D00ECD1
:10043B004EFEED4F2446F58274003EF583E493FFA8
:10044B003395E0FEEF24A1FFEE34E68F82F583E0D7
:10045B0054FEF090E6BCE05480131313541FFFE0DE
:10046B00540F2F90E683F0E04420F08077805F12EA
:10047B0008FE507090E6B8E024FE60192402704E1E
:10048B0090E6BAE0B40104D200805990E6BAE06479
:10049B00026051803990E6BCE0547EFF7E00E0D3D1
:1004AB0094807C0040047D0180027D00EC4EFEEDCB
:1004BB004F2446F58274003EF583E493FF3395E0B9
:1004CB00FEEF24A1FFEE34E68F82F583801290E6D7
:1004DB00A0800D1207ED800C120797500790E6A035
:0B04EB00E04401F090E6A0E04480F047
:0104F60022E3
:030033000205FBC8
:0405FB0053D8EF32B0
:10076B0090E682E030E004E020E60B90E682E03099
:10077B00E119E030E71590E680E04401F07F147E4C
:0C078B00001206B890E680E054FEF02258
:1000030030040990E680E0440AF0800790E680E03F
:100013004408F07FDC7E051206B890E65D74FFF0BD
:0F00230090E65FF05391EF90E680E054F7F02203
:1006B8008E1C8F1D90E600E054187012E51D240171
:1006C800FFE4351CC313F51CEF13F51D801590E6E8
:1006D80000E05418FFBF100BE51D25E0F51DE51CD3
:1006E80033F51CE51D151DAE1C7002151C4E60056A
:0606F80012082880EE222A
:0207C200A90785
:1007C400AE2DAF2E8F828E83A3E064037017AD012C
:1007D40019ED7001228F828E83E07C002FFDEC3EA8
:0807E400FEAF0580DFE4FEFF1B
:0107EC0022EA
:1008140090E682E044C0F090E681F0438701000056
:0408240000000022AE
:100828007400F58690FDA57C05A3E582458370F9E3
:01083800229D
:1006FE00EB9FF5F0EA9E42F0E99D42F0E89C45F052
:01070E0022C8
:10070F00D083D082F8E4937012740193700DA3A379
:10071F0093F8740193F5828883E47374029368608D
:06072F00EFA3A3A380DF8D
:00000001FF
