:03000000020036C5
:0C003600787FE4F6D8FD75812E0202826E
:03004300020500B3
:03005300020500A3
:100500000207B0000207E0000203E9000207C8008A
:100510000206AC000204BE000200420002005200CB
:100520000203FF000204FF000208490002084A001B
:1005300002084B0002084C0002084D0002084E0061
:1005400002084F0002005200020850000208510049
:100550000208520002085300020854000208550025
:10056000020856000200520002005200020052002F
:1005700002085700020858000208590002085A00F1
:1005800002085B0002085C0002085D0002085E00D1
:1005900002085F00020860000208610002086200B1
:1005A0000208630002086400020865000208660091
:0805B000020867000208680060
:100400001201000200000040B404041000000102C8
:1004100000010A06000200000040010009023C0041
:1004200001010080640904000006FF0000000705C8
:10043000020200020007050402000200070586020E
:1004400000020007058802000200070501024000C3
:10045000000705810240000009023C000101008004
:10046000640904000006FF000000070502024000C6
:10047000000705040240000007058602400000074F
:1004800005880240000007050102400000070581C1
:1004900002400000040309041003430079007000C7
:1004A0007200650073007300140341007000650062
:0E04B00078002D0031003100300030000000D7
:1005B800751AFF90E605E054FDF0D20075B2FF9081
:1005C800E600E054E74410F090E601E04440F0E42F
:1005D800F518F519851A80E51AC313F51A7FF47E04
:1005E8000112062F0519E51970020518D39408E5BC
:1005F800186480948040DDE4F518F5197580FF7F54
:10060800F47E0112062FE4F5807FF47E0112062F96
:100618000519E51970020518C39405E51864809456
:060628008040D97580FF3F
:01062E0022A9
:0100320022AB
:02005000D322B9
:02083F00D322C2
:02084100D322C0
:08082F0090E6BAE0F51ED322A9
:10080B0090E740E51EF0E490E68AF090E68B04F06A
:02081B00D322E6
:0808370090E6BAE0F51DD322A2
:10081D0090E740E51DF0E490E68AF090E68B04F059
:02082D00D322D4
:02084300D322BE
:02084500D322BC
:02084700D322BA
:10070E0090E6B9E02423701F75B2FF75804C90E718
:10071E004074DDF0E490E68AF090E68B04F090E60B
:0B072E00A0E04480F08002D322C32230
:1007640090E74074A1F0E490E68AF090E68B74027E
:10077400F07F647E0012062F90E741E0F5B190E629
:07078400A0E04480F0D32245
:1007B000C0E0C083C082D2015391EF90E65D740126
:0807C000F0D082D083D0E032BA
:1003E900C0E0C083C0825391EF90E65D7404F0D001
:0603F90082D083D0E03247
:1007E000C0E0C083C0825391EF90E65D7402F0D008
:0607F00082D083D0E0324C
:1006AC00C0E0C083C082852925852A2685268285BF
:1006BC002583A37402F0852127852228852882852D
:1006CC002783A37407F05391EF90E65D7410F0D07C
:0606DC0082D083D0E03261
:1007C800C0E0C083C082D2035391EF90E65D740805
:0807D800F0D082D083D0E032A2
:1004BE00C0E0C083C08290E680E030E72085212531
:1004CE00852226852682852583A37402F085292719
:1004DE00852A28852882852783A37407F05391EFF8
:0D04EE0090E65D7420F0D082D083D0E03223
:01004200328B
:01005200327B
:0103FF0032CB
:0104FF0032CA
:01084900327C
:01084A00327B
:01084B00327A
:01084C003279
:01084D003278
:01084E003277
:01084F003276
:010850003275
:010851003274
:010852003273
:010853003272
:010854003271
:010855003270
:01085600326F
:01085700326E
:01085800326D
:01085900326C
:01085A00326B
:01085B00326A
:01085C003269
:01085D003268
:01085E003267
:01085F003266
:010860003265
:010861003264
:010862003263
:010863003262
:010864003261
:010865003260
:01086600325F
:01086700325E
:01086800325D
:0A0046000001020203030404050593
:10028200E4F513F512F511F510C203C200C202C261
:10029200011205B87E047F008E238F24752B04750E
:1002A2002C1275210475221C752904752A58752D86
:1002B20004752E94EE54C070030203837514007506
:1002C20015808E168F17C374BC9FFF74049ECF24B3
:1002D20002CF3400FEE48F0F8E0EF50DF50CF50BF8
:1002E200F50AF509F508AF0FAE0EAD0DAC0CAB0B70
:1002F200AA0AA909A808C31206755033E517250BE7
:10030200F582E516350AF583E0FFE515250BF58242
:10031200E514350AF583EFF0E50B2401F50BE4351E
:100322000AF50AE43509F509E43508F50880B785C8
:10033200142385152474002480FF740434FFFEC343
:10034200E52C9FF52CE52B9EF52BC3E5269FF52684
:10035200E5259EF525C3E5289FF528E5279EF52787
:10036200C3E5229FF522E5219EF521C3E52A9FF5EB
:100372002AE5299EF529C3E52E9FF52EE52D9EF54A
:100382002DD2E843D82090E668E04409F090E65C7C
:10039200E0443DF0D2AF90E680E020E105D20412C5
:1003A200000390E680E054F7F0538EF8C203120087
:1003B20032300105120056C2013003F212005050D1
:1003C200EDC20312078B20001690E682E030E704AC
:1003D200E020E1EF90E682E030E604E020E0E41283
:0703E20006E212083F80C78C
:1007F60090E60AE054F0600B90E509E030E402D39D
:0508060022C322D322F1
:1000560090E6B9E012068601050001820102050359
:10006600007C0600FF0800F90900ED0A00F30B0208
:1000760069A10000026E120841400302027A90E66E
:10008600BBE024FE602714603824FD60111460274D
:1000960024067050E52390E6B3F0E524803C120771
:1000A600F6503EE52B90E6B3F0E52C802DE5259045
:1000B600E6B3F0E5268023E52790E6B3F0E5288051
:1000C6001990E6BAE0FF120739AA06A9077B01EAEA
:1000D600494B600DEE90E6B3F0EF90E6B4F0020205
:1000E6007A02026402026412081D02027A120837BA
:1000F60002027A12082F02027A12080B02027A1200
:100106000843400302027A90E6B8E0247F601514A3
:10011600601924027063A200E43325E0FFA202E422
:10012600334F8041E490E740F0803F90E6BCE054D6
:100136007EFF7E00E0D394807C0040047D01800237
:100146007D00EC4EFEED4F2446F58274003EF583AD
:10015600E493FF3395E0FEEF24A1FFEE34E68F82B1
:10016600F583E0540190E740F0E4A3F090E68AF0CE
:1001760090E68B7402F002027A020264120845408D
:100186000302027A90E6B8E024FE601624026003B9
:1001960002027A90E6BAE0B40105C20002027A02CF
:1001A600026490E6BAE0705590E6BCE0547EFF7EAD
:1001B60000E0D394807C0040047D0180027D00EC49
:1001C6004EFEED4F2446F58274003EF583E493FF20
:1001D6003395E0FEEF24A1FFEE34E68F82F583E04F
:1001E60054FEF090E6BCE05480131313541FFFE056
:1001F600540F2F90E683F0E04420F08077805F1262
:100206000847507090E6B8E024FE60192402704E4C
:1002160090E6BAE0B40104D200805990E6BAE064F0
:10022600026051803990E6BCE0547EFF7E00E0D348
:1002360094807C0040047D0180027D00EC4EFEED42
:100246004F2446F58274003EF583E493FF3395E030
:10025600FEEF24A1FFEE34E68F82F583801290E64E
:10026600A0800D120764800C12070E500790E6A0BE
:0B027600E04401F090E6A0E04480F0BE
:01028100225A
:030033000204FBC9
:0404FB0053D8EF32B1
:1006E20090E682E030E004E020E60B90E682E03023
:1006F200E119E030E71590E680E04401F07F147ED6
:0C0702000012062F90E680E054FEF0226A
:1000030030040990E680E0440AF0800790E680E03F
:100013004408F07FDC7E0512062F90E65D74FFF046
:0F00230090E65FF05391EF90E680E054F7F02203
:10062F008E1B8F1C90E600E054187012E51C2401FD
:10063F00FFE4351BC313F51BEF13F51C801590E674
:10064F0000E05418FFBF100BE51C25E0F51CE51B5F
:10065F0033F51BE51C151CAE1B7002151B4E6005F8
:06066F0012079F80EE223D
:02073900A9070E
:10073B00AE2DAF2E8F828E83A3E064037017AD01B5
:10074B0019ED7001228F828E83E07C002FFDEC3E31
:08075B00FEAF0580DFE4FEFFA4
:010763002273
:10078B0090E682E044C0F090E681F04387010000E0
:04079B000000002238
:10079F007400F58690FDA57C05A3E582458370F96D
:0107AF002227
:10067500EB9FF5F0EA9E42F0E99D42F0E89C45F0DB
:010685002252
:10068600D083D082F8E4937012740193700DA3A303
:1006960093F8740193F5828883E473740293686017
:0606A600EFA3A3A380DF17
:00000001FF
