:100A3A000001020203030404050544F51C94A5867B
:0A0A4A0006F4048424074E150E2E56
:070B100075B20F75800F2282
:100A5400E4753C40753B9CF53AF539783974FF12DE
:080A6400071AEC4D4E4F70F330
:010A6C002267
:10081200E4FBFAEB25E0FFEA33FE74002FF5827465
:10082200403EF583EAF0A3EBF00BBB00010AE4B50E
:1008320003E1EAB440DDE4FAFBEB25E0FFEA33FE34
:1008420074002FF58274403EF583E0FEA3E06B70E6
:1008520002EE6A60086390FF120A5480F80BBB0034
:0A086200010AE4B503D3EAB440CF65
:01086C002269
:10028D00E4F513F512F511F510C203C200C202C256
:10029D00011209EF120B107E057F008E238F24753E
:1002AD002B05752C1275210575221C752905752ACE
:1002BD0046752D05752E70EE54C0700302039175B1
:1002CD0014007515808E168F17C374D19FFF74059A
:1002DD009ECF2402CF3400FEE48F0F8E0EF50DF568
:1002ED000CF50BF50AF509F508AF0FAE0EAD0DAC1B
:1002FD000CAB0BAA0AA909A808C31207075033E5CE
:10030D0017250BF582E516350AF583E0FFE5152572
:10031D000BF582E514350AF583EFF0E50B2401F5B5
:10032D000BE4350AF50AE43509F509E43508F50855
:10033D0080B785142385152474002480FF7405343B
:10034D00FFFEC3E52C9FF52CE52B9EF52BC3E52673
:10035D009FF526E5259EF525C3E5289FF528E5277C
:10036D009EF527C3E5229FF522E5219EF521C3E5E4
:10037D002A9FF52AE5299EF529C3E52E9FF52EE541
:10038D002D9EF52DD2E843D82090E668E04409F083
:10039D0090E65CE0443DF0D2AF90E680E020E105D0
:1003AD00D20412000390E680E054F7F0538EF8C2A9
:1003BD0003120738300105120056C2013003F21244
:1003CD00004E50EDC203120A1520001690E682E091
:1003DD0030E704E020E1EF90E682E030E604E02033
:0A03ED00E0E41205D312005080C7AF
:0B0AED0090E50DE030E402C322D322AC
:1000560090E6B9E0700302011514700302019224C0
:10006600FE700302021524FB700302010F147003D5
:100076000201091470030200FD1470030201032437
:100086000560030202791207B5400302028590E675
:10009600BBE024FE602714603824FD60111460273D
:1000A60024067050E52390E6B3F0E524803C120A5E
:1000B600ED503EE52B90E6B3F0E52C802DE525903E
:1000C600E6B3F0E5268023E52790E6B3F0E5288041
:1000D6001990E6BAE0FF1209C4AA06A9077B01EA4D
:1000E600494B600DEE90E6B3F0EF90E6B4F00202F5
:1000F60085020274020274120ADB020285120B00E8
:10010600020285120AF8020285120AC90202851243
:100116000B17400302028590E6B8E0247F601514B1
:10012600601924027063A200E43325E0FFA202E412
:10013600334F8041E490E740F0803F90E6BCE054C6
:100146007EFF7E00E0D394807C0040047D01800227
:100156007D00EC4EFEED4F243AF582740A3EF5839F
:10016600E493FF3395E0FEEF24A1FFEE34E68F82A1
:10017600F583E0540190E740F0E4A3F090E68AF0BE
:1001860090E68B7402F0020285020274120B19408B
:100196000302028590E6B8E024FE6016240260039E
:1001A60002028590E6BAE0B40105C20002028502A9
:1001B600027490E6BAE0705590E6BCE0547EFF7E8D
:1001C60000E0D394807C0040047D0180027D00EC39
:1001D6004EFEED4F243AF582740A3EF583E493FF12
:1001E6003395E0FEEF24A1FFEE34E68F82F583E03F
:1001F60054FEF090E6BCE05480131313541FFFE046
:10020600540F2F90E683F0E04420F08072805F1256
:100216000B1B506B90E6B8E024FE60192402704E6A
:1002260090E6BAE0B40104D200805490E6BAE064E5
:1002360002604C803990E6BCE0547EFF7E00E0D33D
:1002460094807C0040047D0180027D00EC4EFEED32
:100256004F243AF582740A3EF583E493FF3395E022
:10026600FEEF24A1FFEE34E68F82F583800D90E643
:10027600A08008120B1D500790E6A0E04401F09004
:06028600E6A0E04480F058
:01028C00224F
:0300330002004682
:0400460053D8EF326A
:1009EF0090E00174FFF0A3F090E61074B0F090E681
:1009FF0011F0E490E615F090E614F090E613F09005
:060A0F00E612F0020B08E4
:1007380090E6A2E020E142E5805470F52FC3E53051
:10074800952F6035E52F30E407E490E7C2F0800983
:1007580090E7C27404F0638008E52F30E507E49061
:10076800E7C3F0800990E7C37405F0638004E49060
:10077800E7C1F090E68F7405F0852F3090E6A1E090
:1007880020E12990E00174FFF090E780E030E10378
:100798005390BF90E780E030E0035390F790E780F4
:0C07A800E030E2035390FEE490E68DF098
:0107B4002222
:02004E00D322BB
:02005000D322B9
:1007B50075360575372E75310575329275340575A3
:1007C50035D190E6BBE024DE601104703EE536903D
:1007D500E6B3F0E53790E6B4F0C322AD32C3E535B4
:1007E5009DFCE531F59AEDF59BE4FFEFC39C5014B4
:1007F50090E67BE0FE74402FF582E434E7F583EE66
:0C080500F00F80E790E68BECF0C322D3EC
:0108110022C4
:080AF80090E6BAE0F538D322C4
:100AC90090E740E538F0E490E68AF090E68B04F090
:020AD900D32226
:080B000090E6BAE0F533D322C0
:100ADB0090E740E533F0E490E68AF090E68B04F083
:020AEB00D32214
:020B1700D322E7
:020B1900D322E5
:020B1B00D322E3
:020B1D00D322E1
:100A6D00C0E0C083C082D2015391EF90E65D740166
:080A7D00F0D082D083D0E032FA
:100A9D00C0E0C083C0825391EF90E65D7404F0D046
:060AAD0082D083D0E0328C
:100AB300C0E0C083C0825391EF90E65D7402F0D032
:060AC30082D083D0E03276
:10092800C0E0C083C082852925852A268526828540
:100938002583A37402F085212785222885288285AE
:100948002783A37407F05391EF90E65D7410F0D0FD
:0609580082D083D0E032E2
:100A8500C0E0C083C082D2035391EF90E65D740845
:080A9500F0D082D083D0E032E2
:1008B300C0E0C083C08290E680E030E72085212538
:1008C300852226852682852583A37402F085292720
:1008D300852A28852882852783A37407F05391EFFF
:0D08E30090E65D7420F0D082D083D0E0322A
:01003200329B
:01004200328B
:01004A003283
:01005200327B
:0104FF0032CA
:0105FF0032C9
:010B1F0032A3
:010B200032A2
:010B210032A1
:010B220032A0
:010B2300329F
:010B2400329E
:010B2500329D
:010B2600329C
:010B2700329B
:010B2800329A
:010B29003299
:010B2A003298
:010B2B003297
:010B2C003296
:010B2D003295
:010B2E003294
:010B2F003293
:010B30003292
:010B31003291
:010B32003290
:010B3300328F
:010B3400328E
:010B3500328D
:010B3600328C
:010B3700328B
:010B3800328A
:010B39003289
:010B3A003288
:010B3B003287
:010B3C003286
:100500001201000200000040B404051000000102C6
:1005100000010A0600020000004001000902290053
:10052000010100A0320904000002030000000921BB
:1005300010010001223F000705810340000A070562
:10054000010340000A0009022900010100A032094C
:100550000400000203000000092110010001223FF5
:10056000000705810340000A0705010340000A0057
:100570000403090410034300790070007200650051
:10058000730073000E0345005A002D005500530000
:10059000420005010906A101050719E029E7150038
:1005A0002501750195088102950175088101950560
:1005B000750105081901290591029501750391013D
:1005C0009503750815002565050719002965810043
:0305D000C0000068
:03004300020600B2
:03005300020600A2
:10060000020A6D00020AB300020A9D00020A850078
:10061000020928000208B300020032000200420072
:1006200002004A00020052000204FF000205FF001F
:10063000020B1F00020B2000020B2100020B220004
:10064000020B230002004200020B2400020B2500D3
:10065000020B2600020B2700020B2800020B2900C8
:10066000020B2A0002004200020042000200420087
:10067000020B2B00020B2C00020B2D00020B2E0094
:10068000020B2F00020B3000020B3100020B320074
:10069000020B3300020B3400020B3500020B360054
:1006A000020B3700020B3800020B3900020B3A0034
:0806B000020B3B00020B3C00B1
:1005D30090E682E030E004E020E60B90E682E03033
:1005E300E119E030E71590E680E04401F07F147EE6
:0C05F3000012086D90E680E054FEF0223B
:1000030030040990E680E0440AF0800790E680E03F
:100013004408F07FDC7E0512086D90E65D74FFF006
:0F00230090E65FF05391EF90E680E054F7F02203
:080B0800E4F51DD2E9D2AF2291
:1008F000AD0790E678E020E6F9C2E990E678E044BA
:1009000080F0ED25E090E679F090E678E030E0F9CF
:1009100090E678E04440F090E678E020E6F990E652
:0809200078E030E1D6D2E922B3
:10099200AC0790E678E020E6F9E51D702390E67852
:1009A200E04480F0EC25E090E679F08D18AF03A9E1
:1009B200077519018A1A891BE4F51C751D01D322DA
:0209C200C3224E
:10095E00AC0790E678E020E6F9E51D702590E67884
:10096E00E04480F0EC25E0440190E679F08D18AF7C
:10097E0003A9077519018A1A891BE4F51C751D0355
:04098E00D322C3228B
:03004B000203F7B6
:1003F700C0E0C083C082C085C084C086758600C047
:10040700D075D000C000C001C002C003C006C0073D
:1004170090E678E030E206751D060204E190E67882
:10042700E020E10CE51D64026006751D070204E18A
:10043700E51D24FE605F14603624FE70030204D2BB
:1004470024FC70030204DE240860030204E1AB19F4
:10045700AA1AA91BAF1C051C8F827583001206B848
:1004670090E679F0E51C65187070751D05806B9036
:10047700E679E0AB19AA1AA91BAE1C8E8275830018
:100487001206E5751D02E5186401704E90E678E0E6
:100497004420F08045E51824FEB51C0790E678E077
:1004A7004420F0E51814B51C0A90E678E04440F0C3
:1004B700751D0090E679E0AB19AA1AA91BAE1C8E30
:1004C700827583001206E5051C800F90E678E044EC
:1004D70040F0751D008003751D005391DFD007D0D4
:1004E70006D003D002D001D000D0D0D086D084D09F
:0804F70085D082D083D0E032F1
:0209C400A90781
:1009C600AE2DAF2E8F828E83A3E064037017AD0128
:1009D60019ED7001228F828E83E07C002FFDEC3EA4
:0809E600FEAF0580DFE4FEFF17
:0109EE0022E6
:100A150090E682E044C0F090E681F0438701000053
:040A250000000022AB
:10086D008E1E8F1F90E600E054187012E51F2401B4
:10087D00FFE4351EC313F51EEF13F51F801590E62B
:10088D0000E05418FFBF100BE51F25E0F51FE51E16
:10089D0033F51EE51F151FAE1E7002151E4E6005A9
:0608AD00120A2980EE2270
:100A29007400F58690FDA57C05A3E582458370F9E0
:010A3900229A
:03000000020036C5
:0C003600787FE4F6D8FD75813C02028D55
:1006B800BB010CE58229F582E5833AF583E02250F7
:1006C80006E92582F8E622BBFE06E92582F8E22241
:0D06D800E58229F582E5833AF583E493225B
:1006E500F8BB010DE58229F582E5833AF583E8F04B
:1006F500225006E92582C8F622BBFE05E92582C8F7
:02070500F222DE
:10070700EB9FF5F0EA9E42F0E99D42F0E89C45F048
:0107170022BF
:100718007401FF3395E0FEFDFC080808E6CF2FF6CC
:1007280018E6CE3EF618E6CD3DF618E6CC3CF622A5
:00000001FF
