:100600001201000100000040250934120000000022
:10061000000109022200010100A0000904000001FC
:1006200003010200092110010001223400070581A5
:10063000034000010005010902A1010901A1009583
:10064000037501050919012903150025018102958A
:1006500001750581017508950205010930093116FA
:10066000018026FF7F8106C0C004030904100343F4
:10067000007900700072006500730073001203457A
:10068000005A002D004D006F0075007300650000DA
:010690000069
:0A09240000010202030304040505AC
:10034700E4F513F512F511F510C203C200C202C29B
:100357000112077F7E067F008E1A8F1B751C06759C
:100367001D12751E06751F69EE54E07003020455D1
:100377007514007515808E168F17C3748F9FFF74C1
:10038700069ECF2402CF3400FEE48F0F8E0EF50DAC
:10039700F50CF50BF50AF509F508AF0FAE0EAD0D27
:1003A700AC0CAB0BAA0AA909A808C312091350265B
:1003B700E515250BF582E514350AF58374CDF0E5CF
:1003C7000B2401F50BE4350AF50AE43509F509E4D0
:1003D7003508F50880C4E4F50BF50AF509F508AF0B
:1003E7000FAE0EAD0DAC0CAB0BAA0AA909A808C33A
:1003F7001209135033E517250BF582E516350AF573
:1004070083E0FFE515250BF582E514350AF583EF43
:10041700F0E50B2401F50BE4350AF50AE43509F597
:1004270009E43508F50880B785141A85151B74008B
:100437002480FF740634FFFEC3E51D9FF51DE51CF0
:100447009EF51CC3E51F9FF51FE51E9EF51ED2E80E
:1004570043D82090E668E04409F090E65CE0443D2C
:10046700F0D2AF90E680E020E105D2041204BB9001
:10047700E680E054F7F0538EF8C20330010512000E
:1004870080C2013003291205FE5024C2031208322C
:1004970020001690E682E030E704E020E1EF90E6E6
:1004A70082E030E604E020E0E41207DE120946129B
:0404B700071D80C7D6
:1000800090E6B9E070030201BD14700302023A2445
:10009000FE70030202D424FB70030201B714700344
:1000A0000201B11470030201A51470030201AB2414
:1000B000056003020333120948400302033F90E640
:1000C000BBE024FE601B14602224E2604D146059E2
:1000D000242160030201A2E51A90E6B3F0E51B803B
:1000E00041E51C90E6B3F0E51D803790E6BAE014D8
:1000F00060111460182402701E740690E6B3F07448
:1001000069801F740690E6B3F0746D8015740690D4
:10011000E6B3F0747D800B020338740690E6B3F00A
:10012000742490E6B4F002033F7E067F35C3746901
:100130009FF51974069EF518EEF59AEFF59BE519F3
:100140004518700302033FC3E5199440E518940075
:100150005006AE18AF1980047E007F40E4FDFCC35A
:10016000ED9FEC9E501890E67BE0FB74402DF582ED
:10017000E434E7F583EBF00DBD00010C80E1E49081
:10018000E68AF000000090E68BEFF0000000C3E587
:10019000199FF519E5189EF51890E6A0E030E19E4C
:1001A00080F702033812090102033F1209360203E5
:1001B0003F12092E02033F1208EF02033F12094AC1
:1001C000400302033F90E6B8E0247F6015146019F5
:1001D00024027063A200E43325E0FFA202E4334F5F
:1001E0008041E490E740F0803F90E6BCE0547EFF21
:1001F0007E00E0D394807C0040047D0180027D007D
:10020000EC4EFEED4F2424F58274093EF583E49311
:10021000FF3395E0FEEF24A1FFEE34E68F82F583F5
:10022000E0540190E740F0E4A3F090E68AF090E615
:100230008B7402F002033F02033812094C400302A0
:10024000033F90E6B8E024FE601624026003020338
:100250003F90E6BAE0B40105C20002033F02033852
:1002600090E6BAE02480605C14605E248170639044
:10027000E6BCE0547EFF7E00E0D394807C00400426
:100280007D0180027D00EC4EFEED4F2424F582744A
:10029000093EF583E493FF3395E0FEEF24A1FFEEE2
:1002A00034E68F82F583E054FEF090E6BCE05480A3
:1002B000131313541FFFE0540F2F90E683F0E04414
:1002C00020F0807B90E6A0800390E6A2E054FEF050
:1002D000806D806412094E506690E6B8E024FE609E
:1002E000192402705A90E6BAE0B40104D200804F9B
:1002F00090E6BAE064026047803E90E6BCE0547E3F
:10030000FF7E00E0D394807C0040047D0180027D6C
:1003100000EC4EFEED4F2424F58274093EF583E493
:1003200093FF3395E0FEEF24A1FFEE34E68F82F5D4
:1003300083800812080A500790E6A0E04401F0907C
:06034000E6A0E04480F09D
:010346002294
:0300330002093E81
:04093E0053D8EF3269
:030942000127FF8B
:10087700E5805470C4540F24FB60071470087FFE92
:0B08870080067FFD80027F0F53070FEB
:010892002243
:10077F0090E600E054E74410F090E601E04440F0CA
:10078F0053B2CF90E61074A0F090E611F000000085
:10079F0090E61274A2F000000090E61374A0F0002F
:1007AF00000090E61474E2F000000090E61574E08B
:1007BF00F000000090E6917480F0000000F000005F
:0F07CF000090E695F0000000F043AF01D2002249
:10071D0090E6A2E020E15A1208778F24120877EFB5
:10072D006524704D90E7C0F0C3E5289524603FE542
:10073D002420E004E04401F0E52420E10790E7C027
:10074D00E04402F0E52430E207E490E7C1F08006D2
:10075D0090E7C1740AF0E52430E307E490E7C2F0B6
:10076D00800690E7C2740AF090E68F7403F085243A
:02077D00282230
:0205FE00D32206
:02094600D322BA
:02094800D322B8
:08092E0090E6BAE0F52BD3229C
:1008EF0090E740E52BF0E490E68AF090E68B04F079
:0208FF00D32202
:0809360090E6BAE0F523D3229C
:1009010090E740E523F0E490E68AF090E68B04F06E
:02091100D322EF
:02094A00D322B6
:02094C00D322B4
:02094E00D322B2
:10080A0090E6B9E0242F600D04701990E604E0FF29
:10081A00430780800890E604E0FF53077F0000004A
:07082A00EFF08002D322C3AE
:0108310022A4
:10089300C0E0C083C082D2015391EF90E65D740142
:0808A300F0D082D083D0E032D6
:1004EA00C0E0C083C0825391EF90E65D7404F0D0FF
:0604FA0082D083D0E03245
:1008C300C0E0C083C0825391EF90E65D7402F0D024
:0608D30082D083D0E03268
:10085700C0E0C083C082851D82851C83A37402F01B
:100867005391EF90E65D7410F0D082D083D0E032E0
:1008AB00C0E0C083C082D2035391EF90E65D740821
:0808BB00F0D082D083D0E032BE
:1008D900C0E0C083C0825391EF90E65D7420F0D0F0
:0608E90082D083D0E03252
:010950003274
:010951003273
:010952003272
:010953003271
:010954003270
:01095500326F
:01095600326E
:01095700326D
:01095800326C
:01095900326B
:01095A00326A
:01095B003269
:01095C003268
:01095D003267
:01095E003266
:01095F003265
:010960003264
:010961003263
:010962003262
:010963003261
:010964003260
:01096500325F
:01096600325E
:01096700325D
:01096800325C
:01096900325B
:01096A00325A
:01096B003259
:01096C003258
:01096D003257
:01096E003256
:01096F003255
:010970003254
:010971003253
:010972003252
:010973003251
:03004300020500B3
:03005300020500A3
:10050000020893000208C3000204EA000208AB00DC
:10051000020857000208D9000209500002095100E0
:100520000209520002095300020954000209550051
:100530000209560002095700020958000209590031
:1005400002095A000209510002095B0002095C001D
:1005500002095D0002095E0002095F0002096000F5
:10056000020961000209510002095100020951000B
:1005700002096200020963000209640002096500C1
:1005800002096600020967000209680002096900A1
:1005900002096A0002096B0002096C0002096D0081
:1005A00002096E0002096F00020970000209710061
:0805B000020972000209730048
:1007DE0090E682E030E004E020E60B90E682E03026
:1007EE00E119E030E71590E680E04401F07F147ED9
:0C07FE00001205B890E680E054FEF022E6
:1004BB0030040990E680E0440AF0800790E680E083
:1004CB004408F07FDC7E051205B890E65D74FFF002
:0F04DB0090E65FF05391EF90E680E054F7F02247
:1008320090E682E044C0F090E681F0438701000038
:040842000000002290
:1005B8008E188F1990E600E054187012E51924017E
:1005C800FFE43518C313F518EF13F519801590E6F5
:1005D80000E05418FFBF100BE51925E0F519E518E0
:1005E80033F518E5191519AE18700215184E60057F
:0605F80012084680EE220D
:100846007400F58690FDA57C05A3E582458370F9C5
:01085600227F
:0300000002069164
:0C069100787FE4F6D8FD75812B0206D8B6
:10091300EB9FF5F0EA9E42F0E99D42F0E89C45F03A
:0109230022B1
:10069D00020347E493A3F8E493A34003F68001F229
:1006AD0008DFF48029E493A3F85407240CC8C3335E
:1006BD00C4540F4420C8834004F456800146F6DF2D
:1006CD00E4800B0102040810204080900942E47E72
:1006DD00019360BCA3FF543F30E509541FFEE49322
:1006ED00A360010ECF54C025E060A840B8E493A3E9
:1006FD00FAE493A3F8E493A3C8C582C8CAC583CA14
:10070D00F0A3C8C582C8CAC583CADFE9DEE780BECB
:0109450000B1
:00000001FF
